:200000000C94DD000C9405010C9405010C9405010C9405010C9405010C9405010C940501D9
:200020000C9405010C9405010C94190B0C94880B0C9405010C9405010C9405010C940501E5
:200040000C9405010C94B70E0C9405010C9405010C9405010C9405010C9405010C946D0E3C
:200060000C9405010C943B0E0C94150E0C9405010C9405010C9405010C9405010C940501F0
:200080000C94BA0D0C9405010C9405010C9405010C9405010C9405010C9405010C9405016F
:2000A0000C9405010C9405010C940501070605040100080A0B0C0D090000000024002700AD
:2000C0002A002D003000080B00020202000009040000010202000005240010010524010109
:2000E000010424020605240600010705810310004009040100020A00000007050202400055
:2001000000070583024000000403090412010002EF020140412336800001010203014172DE
:200120006475696E6F204C4C430041726475696E6F204C656F6E6172646F0000000000255A
:200140000028002B002E003100030000000200090F0000030401000C0000000000000000BC
:20016000000000000000000000000000002300260029002C002F0004040404040304050290
:200180000202020403020202020606060606060404020202040404080201104080401020C1
:2001A000408040800802040180402010020110801020404020000610DD1811241FBECFEF82
:2001C000DAE0DEBFCDBF11E0A0E0B1E0ECEFF9E302C005900D92A037B107D9F723E0A0E7A4
:2001E000B1E001C01D92AA36B207E1F710E0CCEDD0E004C02197FE010E94C31ACB3DD1075A
:20020000C9F70E94C7100C94F11C0C9400000895FC0180915002882311F13FB7F89482E0CA
:200220008093E9002091F200822F90E01816190614F481E090E0882339F0289844E6409347
:200240004F024091F1004083222339F02091F200211103C02BE62093E8003FBF08958FEFFD
:200260009FEF08952FB7F89483E08093E9009091E800892F807295FF04C09091F20080E400
:20028000891B2FBF08958091470281110DC082E08093430284E08093440210924602109273
:2002A000450281E08093470283E492E0089540917F015091800120917D0130917E01421749
:2002C0005307B4F49091E8009570E1F39091E80092FD19C08093F10080917F019091800192
:2002E00001968F739927892B19F48EEF8093E80080917F01909180010196909380018093EB
:200300007F0181E0089580E00895DF92EF92FF920F931F93CF93DF93D82E8A01EB017B01BE
:20032000E40EF51ECE15DF0559F0D7FE12C0FE0184910E94570121968111F4CF0FEF1FEFDB
:20034000C801DF91CF911F910F91FF90EF90DF9008958881EECF0F931F93CF93DF931F92FB
:20036000CDB7DEB782E0898342E450E066EC70E080E80E9485010E944301DC0112960D9165
:200380001C910115110589F0D801ED91FC910280F381E02DBE016F5F7F4FC801099597FDCE
:2003A00004C0F80100851185ECCF89810F90DF91CF911F910F910895615030F02091F100D1
:2003C000FC0120830196F8CF289884E680934F020895AF92BF92CF92DF92EF92FF920F93DC
:2003E0001F93CF93DF936C017B018B01040F151FEB015E01AE18BF08C017D10759F06991F1
:20040000D601ED91FC910190F081E02DC6010995892B79F7C501DF91CF911F910F91FF90ED
:20042000EF90DF90CF90BF90AF900895FC01538D448D252F30E0842F90E0821B930B541769
:2004400010F0CF96089501970895FC01918D828D981761F0A28DAE0FBF2FB11D5D968C9183
:20046000928D9F5F9F73928F90E008958FEF9FEF08952FB7F8948091510290915202A091FA
:200480005302B09154022FBF80935D0290935E02A0935F02B093600285E592E00E942502AF
:2004A00097FF26C02FB7F8948091510290915202A0915302B09154022FBF40915D02509159
:2004C0005E0260915F0270916002841B950BA60BB70B4091590250915A0260915B0270919D
:2004E0005C0284179507A607B707B0F28FEF9FEF0895FC01918D828D981731F0828DE80FB1
:20050000F11D858D90E008958FEF9FEF0895FC01918D228D892F90E0805C9F4F821B910912
:200520008F739927089585E592E00E94870221E0892B09F420E0822F089580E090E0892BD1
:2005400029F00E94930281110C9400000895FC01A48DA80FB92FB11DA35ABF4F2C91848D08
:2005600090E001968F739927848FA689B7892C93A089B1898C9182748C93938D848D981300
:2005800006C00288F389E02D80818F7D80830895EF92FF920F931F93CF93DF93EC0181E04D
:2005A000888F9B8D8C8D981319C0E889F989808185FF14C09FB7F894EE89FF896083E889DE
:2005C000F9898081827480839FBF81E090E0DF91CF911F910F91FF90EF900895F62E0B8DE9
:2005E00010E00F5F1F4F0F731127E02E8C8D8E110CC00FB607FCFACFE889F989808185FFDA
:20060000F5CFCE010E94A702F1CFEB8DEC0FFD2FF11DE35AFF4FF0829FB7F8940B8FEA89A3
:20062000FB8980818062CFCFCF93DF93EC01888D8823B9F0AA89BB89E889F9898C9185FD82
:2006400003C0808186FD0DC00FB607FCF7CF8C9185FFF2CF808185FFEDCFCE010E94A7023B
:20066000E9CFDF91CF910895CF93DF931F92CDB7DEB76983DC01ED91FC910280F381E02DE0
:2006800041E050E0BE016F5F7F4F09950F90DF91CF91089583E08093E9008091F2008823F7
:2006A00019F08AE38093E80008950E94320190E00895CF93DF931F92CDB7DEB7FC018485A6
:2006C000958597FD08C02FEF3FEF358724870F90DF91CF910895CE0101960E94080101973C
:2006E00019F4898190E0F3CF8FEF9FEFF0CF0F931F93CF93DF931F92CDB7DEB78C01FC016A
:200700008485958597FF0BC0CE0101960E940801019771F4898190E0F80195878487F801B4
:20072000848595850F90DF91CF911F910F9108958FEF9FEFF1CFFC018485958597FD0BC0EF
:200740009FB7F89482E08093E9008091F2009FBF90E0019608959FB7F89482E08093E90014
:200760008091F2009FBF90E0089581508F3008F047C0E82FF0E0E154FC4F0C94C31ADC03B9
:20078000E003CE03D403D803000400040004E303E903ED03F103F7030004FB0380918000A4
:2007A0008F77809380000895809180008F7DF9CF80918000877FF5CF84B58F7784BD089526
:2007C00084B58F7DFBCF809190008F77809390000895809190008F7DF9CF80919000877F07
:2007E000F5CF8091C0008F778093C00008958091C0008F7DF9CF8091C200877F8093C2009B
:200800000895CF93DF93282F30E0F901E65BFE4F8491F901EA56FE4FD491F901E958FE4FEF
:20082000C491CC23A1F081110E94B503EC2FF0E0EE0FFF1FE759FE4FA591B491EC91ED235C
:2008400081E090E009F480E0DF91CF91089580E090E0FACF1F93CF93DF93282F30E0F9017D
:20086000E65BFE4F8491F901EA56FE4FD491F901E958FE4FC491CC23A9F0162F81110E940B
:20088000B503EC2FF0E0EE0FFF1FE55CFE4FA591B4918FB7F894EC91111108C0D095DE23F2
:2008A000DC938FBFDF91CF911F910895DE2BF8CFCF93DF9390E0FC01EA56FE4F249189582A
:2008C0009E4FFC0184918823C9F090E0880F991FFC01E854FF4FA591B491FC01E55CFE4F69
:2008E000C591D49161110DC09FB7F8948C91209582238C938881282328839FBFDF91CF9159
:200900000895623051F49FB7F8943C91822F809583238C93E8812E2BEFCF8FB7F894EC915A
:200920002E2B2C938FBFEACF823108F08251E82FF0E0E455FF4FE49190917B008E2F880F47
:20094000880F80729F7D892B80937B00E770E064E0937C0080917A00806480937A00809119
:200960007A0086FDFCCF809178009091790008953FB7F8948091790190917A01A0917B0199
:20098000B0917C0126B5A89B05C02F3F19F00196A11DB11D3FBFBA2FA92F982F8827BC012A
:2009A000CD01620F711D811D911D42E0660F771F881F991F4A95D1F708958F929F92AF92BB
:2009C000BF92CF92DF92EF92FF926B017C010E94B8044B015C01C114D104E104F104B9F0C5
:2009E0000E94B804681979098A099B09683E73408105910580F321E0C21AD108E108F108DF
:200A000088EE880E83E0981EA11CB11CE4CFFF90EF90DF90CF90BF90AF909F908F9008951F
:200A20008F929F92AF92BF92CF92DF92EF92FF920F931F93CF93DF936C017B018A01809141
:200A40000B01882309F45CC080915002882309F457C08091830180FF05C08091E0008260F8
:200A60008093E000E801B12C8AEFA82E93E0892E2AE3922E209711F4BB20D9F10E94320141
:200A800081110AC0AA94AA20D9F161E070E080E090E00E94DD04EECF8C171D0611F00CF0C4
:200AA0008C2F9FB7F8948092E9002091E80025FD02C09FBFDFCF282F30E0C21BD30BF701FB
:200AC000815020F041914093F100FACFE20EF31EBB2021F09092E800B12CEBCF8091E8004F
:200AE00085FDE7CF9092E800BB24B394209709F3F3CF5D9884E680938201101611063CF0BB
:200B000081E090E0F6019383828310E000E0C801DF91CF911F910F91FF90EF90DF90CF905D
:200B2000BF90AF909F908F900895DC01EC91EC3090F511968C91119728E830E0281B310938
:200B400087FD3395220F331F220F331F6217730784F012968C9128E532E0281B310987FDF7
:200B60003395220F331F220F331F621773070CF49B0122503109220F331F4FB7F8948E2F9A
:200B800090E0FC01EE0FFF1FE80FF91FED55FE4F328321834FBF08951F93CF93DF93EC01B8
:200BA000162F88818C3008F04EC061E0812F0E9458048881282F30E0F901EE0FFF1FE20FC0
:200BC000F31FED55FE4F1F736081607C612B608319821A822CE0622F0E94A31A829FB001B1
:200BE000112430E020E0AB01420F531FFA01EE0FFF1FE40FF51FED55FE4F908196FD16C01B
:200C00002F5F3F4F2C30310571F781110FC01092800082E0809381001092850010928400F8
:200C2000B19A80916F00826080936F00E8818E2F90E0FC01EE0FFF1FE80FF91FED55FE4F39
:200C40008081806480838881DF91CF911F910895FF920F931F93CF93DF93EC01FF24F39436
:200C6000F60E2F812F1581F108851985215041F16F3FE1F430E050E040E06FEF7FEF80E02D
:200C800090E00E943619B901F8014C815D81CF01801B910B84179507B0F44081469FC0014C
:200CA000479F900D112490833196EFCF8F2D90E0982F88270197622F70E00E94AF1AE4CFAB
:200CC00070E060E0E1CFFF82DF91CF911F910F91FF9008950F931F93DC0112968D919C91E3
:200CE000139768177907C0F517968C911797882361F0489FA0011124452F829F900111240A
:200D0000232F809F80011124012F1D968C911D971896ED91FC9119971A969C911A97891365
:200D20001EC0CB01880F991F680F791F6E0F7F1F1A96EC911A97E60FF72FF11D40831B9615
:200D4000EC911B97E60FF72FF11D20831C968C91680F711DFB0100831F910F910895660FE3
:200D6000771F660F771F6E0F7F1FFB01E80FF11D1082DECF1F93CF93DF93EC01162F8981B5
:200D8000882331F08E8187FD03C060E00E9458041E838981882341F061E0812F0E9458047D
:200DA00060E0812F0E942A04812F90E0FC01E958FE4FE491F0E0EE0FFF1FE55CFE4F259124
:200DC00034913B8B2A8BFC01EA56FE4FE491EC8BDF91CF911F910895CF92DF92EF92FF925C
:200DE0000F931F93CF93DF93CDB7DEB729970FB6F894DEBF0FBECDBF8C01DC0118968D9175
:200E00009C91892B09F465C00E94B804F801C684D784E088F1886C197D098E099F096C320A
:200E200071408105910580F3F894D80114968D919C9115979A8389831896ED91FC917F010A
:200E4000BFEFEB1AFB0A80818987F80190810288F389E02DD80154968C91992309F448C00B
:200E60009081982B98879081809589238F838F818C8388E08B8358856F8149853B812C8102
:200E800089819A81D701508347FD252F3A952083262F39F0441F00C000006083000000C034
:200EA000F2CF38E04D9160830000019761F7D8015396FC93EE93529749873B832C839A8393
:200EC000898378940E94B804F80166877787808B918B29960FB6F894DEBF0FBECDBFDF911B
:200EE000CF911F910F91FF90EF90DF90CF9008959081982B98879081809589238F838F81E2
:200F00008E8388E08D8358856F8149853D812E8189819A81D701508347FD252F00C000C058
:200F2000208300C000C000C000C000C060830000262F3A9541F0441F000000C000C000C073
:200F400000C000C0E8CF38E04D9100C0608300C0019709F7D8015396FC93EE9352974987DE
:200F60003D832E83ACCFCF93DF93EC018E8187FD07C061E00E94580460E08E810E942A040C
:200F800081E08983DF91CF91089590917501923031F128F4992351F09130C1F00895943010
:200FA000F1F130F1953009F448C008958A3A49F4809140028F5F8093400281E08093750146
:200FC0000895109275011092400208958434C9F7809140028F5F8093400282E0EFCF8C31F0
:200FE00081F7809140028F5F8093400283E0E6CF9AEA90930E0294E490930F029CE19093C8
:20100000100290914002E92F092E000CFF0BEE51FE4F84A79F5F9093400284E0CFCF9091B9
:201020004002E92F092E000CFF0BEE51FE4F84A79F5F9093400285E0C1CF20914002E22FF6
:20104000022E000CFF0BEE51FE4F84A72F5F20934002422F022E000C550B80911202082EA8
:20106000000C990B05964817590709F06CC03091E2014091CB015091E30190E080E09217C2
:201080000CF057C0823079F134F48823A9F08130F9F09F5FF4CF8430D1F184F18530C9F7FA
:2010A0001092EC01A4EEB1E080E0E82FE90F831337C09E2F41E00AC0E92F092E000CFF0B65
:2010C000EE51FE4F81E064A56A3A19F380E0E1CFE92F092E000CFF0BEE51FE4F64A56434C8
:2010E000C1F682E0D6CFE92F092E000CFF0BEE51FE4F64A56C3169F683E0CBCFE92F092EF0
:20110000000CFF0BEE51FE4F54A584E0C2CFE92F092E000CFF0BEE51FE4F34A585E0B9CF88
:201120000E2E000CFF0BEE51FE4F44A54D938F5FBCCF3093E2015093E3014093CB011092E1
:201140004002109275010895EF92FF920F931F93CF93DF93EC011CEF141BE62EF12C00E026
:2011600020E0412FB7010E946A06CE010E94EC0620E0412FB701CE010E946A06CE01DF918A
:20118000CF911F910F91FF90EF900C94EC06CF93DF93EC0180914203909143030097E9F011
:2011A0006881798161157105B1F040914403509145032C813D814217530768F00E94EA1C60
:2011C0008C819D8190934703809346031D821C82DF91CF9108950E948B1B888199819093E3
:2011E0004303809342038A819B8190934503809344038C819D8190934703809346031982D6
:2012000018821B821A82E2CFFC0180819181009711F00C948B1B0895CF93DF93EC018885F1
:201220009985009711F00E948B1B8E8187FD05C060E0DF91CF910C945804DF91CF910895DF
:201240000F931F93CF938C01C0E0F8018589C81738F440E06C2FC8010E94A408CF5FF5CFD5
:20126000C801CF911F910F910C940C090F93CF93DF9310924002E0914E038E2F90E0FC01FA
:20128000EE0FFF1FE80FF91FED55FE4F808186FF05C08F7B808380E180938100E0914B0389
:2012A0008E2F90E0FC01EE0FFF1FE80FF91FED55FE4F808186FF05C08F7B808380E180937F
:2012C0008100E09148038E2F90E0FC01EE0FFF1FE80FF91FED55FE4F808186FF05C08F7B99
:2012E000808380E180938100C0918B01D0918C01209751F0CE010E942009CE010E948B1B82
:2013000010928C0110928B01C0918901D0918A01209751F0CE010E942009CE010E948B1B00
:2013200010928A0110928901C0918701D0918801209751F0CE010E942009CE010E948B1BE8
:20134000109288011092870161E086E00E94580460E086E00E942A0461E089E00E94580475
:2013600060E089E00E942A0461E08AE00E94580460E08AE00E942A0460E084E00E9458042F
:2013800060E084E00E942A0460E088E00E94580460E088E00E942A0460E08CE00E94580411
:2013A00060E08CE00E942A0481E593E00E94B30762E381E593E00E94280681E593E00E9413
:2013C000EC0600E020E040E070E060E081E593E00E946A0620E040E061E070E081E593E016
:2013E0000E946A0620E040E062E070E081E593E00E946A0681E593E00E94EC0681E080935D
:2014000041029EE0909342028093CD018093F801DF91CF910F9108950F931F93EBE9F1E0B1
:201420006491ECE7F1E0E491F0E0EE0FFF1FE759FE4F8591949100E412E42FE030E0462F7D
:201440000E94730F611571058105910529F06F5F7F4F8F4F9F4F9F701F910F9108950F9341
:201460001F93CF93DF93EC0188819981009759F02A813B812617370730F081E0DF91CF91C3
:201480001F910F9108958B016F5F7F4F0E94141C009759F0998388831B830A832C813D81C8
:2014A000232B59F7FC011082E8CF80E0E7CFEF92FF920F931F93CF93DF9300D0CDB7DEB70F
:2014C0008C01FC0111821082138212821582148270E060E00E942F0AF801208131818111BE
:2014E0002FC02115310519F0C9010E948B1BF8011182108215821482138212820E94390225
:2015000097FD26C089831A82F801E480F580FFEFEF1AFF0AB701C8010E942F0A882371F36C
:20152000F8012081318184819581BE016F5F7F4F820F931F0E94EA1CF801F582E482DECF7B
:20154000158214826CE471E0C9010E94EA1CD6CFC8010F900F90DF91CF911F910F91FF90F0
:20156000EF900895EF92FF920F931F93CF93DF93EC017B0188859985009711F00E948B1BA1
:201580009D858A85981701F184E090E08E9D80018F9D100D9E9D100D11241D830C83C8012B
:2015A0000E94EF1A99878887009789F0A80170E060E00E94DA1CFB82EA82DF91CF911F9107
:2015C0000F91FF90EF90089583E090E0DFCF1D821C821B821A82F1CF0F931F93CF93DF93E1
:2015E000EC01162F042F19821F82198618861E861F86188A198A1D861A8681E08B8792E057
:201600009C87888370E0CE010E94B20A602FCE010E94BA061D8BCE010E94B3076FEFCE015F
:201620000E942806CE01DF91CF911F910F910C94EC061F920F920FB60F9211248F939F9318
:201640008091E1009091E100937F9093E10083FF0FC01092E90091E09093EB001092EC0097
:2016600092E39093ED001092500298E09093F00082FF22C093E09093E9009091F2009923B5
:2016800019F09AE39093E80090918201992341F090918201915090938201911101C05D9AA3
:2016A00090914F02992341F090914F02915090934F02911101C0289A84FF18C08091E20091
:2016C0008E7E81608093E2008091E1008F7E8093E100809183018E7E8061809383019F91EC
:2016E0008F910F900FBE0F901F90189580FFF7CF8091E2008E7E80618093E2008091E10057
:201700008E7E8093E100809183018E7E8160E5CF1F920F920FB60F921124CF92DF92EF9253
:20172000FF920F931F932F933F934F935F936F937F938F939F93AF93BF93EF93FF93CF93EA
:20174000DF93CDB7DEB76C97DEBFCDBF1092E9008091E80083FF25C068E0CE0145960E9453
:20176000DC0182EF8093E8008D8987FF39C09091E80090FFFCCF982F907609F034C19E8946
:201780004F89588D2F89F88C911131C0803861F5809184018093F1001092F1008EEF8093F2
:2017A000E8006C960FB6F894DEBF0FBECDBFDF91CF91FF91EF91BF91AF919F918F917F9128
:2017C0006F915F914F913F912F911F910F91FF90EF90DF90CF900F900FBE0F901F90189516
:2017E0009EEF9093E800C7CF1092F100D5CF913059F48111D3CF4130510581F6809184016E
:201800008D7F80938401CACF933049F48111C6CF4130510519F6809184018260F2CF953090
:2018200041F48091E80080FFFCCF20682093E300B5CF963009F0A9C00B8D1C8D22E0109281
:20184000E9001092800110927F01F2122EC010927E0110927D010E94AB011F8299E09983A3
:20186000FA8291E09E8390EA98879AEF998720917F0130918001275F3F4F3C832B838D8314
:201880001092E9001092800110927F0110937E0100937D0149E050E0BE016F5F7F4F80E031
:2018A0000E9485010E94AB0179CF10937E0100937D010E944301DC0112960D911C9101156B
:2018C000110509F451C1D801ED91FC910480F581E02DBE016B5E7F4FC8010995009709F0AB
:2018E0003EC1F80100851185EACFF3E0FF120EC08F89882309F440C0823061F440E860E13A
:201900008AE291E00E94B80F811148CF81E28093EB0047CF813029F440E86BE08EE191E040
:20192000F1CF833099F70E944301DC011296ED90FC908E010F5F1F4F6801E114F10479F009
:20194000D701ED91FC910680F781E02DB801C7010995080F111DF701E084F184EECFD801CE
:201960001C92F60101900020E9F73197BF016C197D0940E0C601C6CF68E071E0FB014491B8
:2019800050E080E80E94850109CF973009F4BECF983021F481E08093F10000CF993009F08B
:2019A000FDCE837009F0B2CFE4E1F1E081E031E096E32191222371F08093E9003093EB006C
:2019C000DF0111972C912093EC009093ED008F5F873079F78EE78093EA001092EA008F89E8
:2019E00080935002DBCE8B8D9C8D1092E9001092800110927F0190937E0180937D01898D7F
:201A0000811192C08E899D89913A49F4813209F07DCF47E050E064E071E080E0B3CF913214
:201A200009F074CF833269F48F89988DB0E0A0E08093000190930101A0930201B093030155
:201A4000ADCE803269F48091E80082FFFCCF67E084E091E00E94DC018BEF8093E8009ECE3B
:201A6000823209F09BCE8F8980930B01EEEFFFE7859194918B3F9C4D51F1E0E0F8E080917D
:201A8000040190910501A0910601B0910701803B9440A105B105F1F480910B0180FD1AC055
:201AA000EE3F8AE0F80789F587E797E791838083809160008093810188E19BE00FB6F894D4
:201AC000A895809360000FBE9093600067CEEEEFFAE0D5CF808191818737974709F05ECEA2
:201AE000A895809160008861809360008091810180936000EE3F2AE0F20789F08091FE0A14
:201B00009091FF0A9183808349CE808191818737980751F29093FF0A8093FE0AC5CF10923D
:201B2000FF0A1092FE0A3ACE0E944301DC0112960D911C910115110509F4E8CED801ED91FE
:201B4000FC910190F081E02DBE016B5E7F4FC8010995811123CEF80100851185EBCF1816AD
:201B600019060CF41BCED2CEF1E0FF12BECE6CE071E004CF1F920F920FB60F9211248F93D0
:201B80009F93AF93BF93EF93FF938091970190919801A0919901B0919A01892B8A2B8B2B42
:201BA000A1F190918E01E0918F01F09190018081892780838091970190919801A0919901EE
:201BC000B0919A01181619061A061B069CF48091970190919801A0919901B0919A01019769
:201BE000A109B1098093970190939801A0939901B0939A01FF91EF91BF91AF919F918F917F
:201C00000F900FBE0F901F901895809171008D7F8093710080918E01E0918F01F091900198
:201C20009081809589238083E5CF1F920F920FB60F9211242F933F934F935F936F937F93B2
:201C40008F939F93AF93BF93EF93FF9385E592E00E94A702FF91EF91BF91AF919F918F9171
:201C60007F916F915F914F913F912F910F900FBE0F901F9018951F920F920FB60F921124A0
:201C80002F938F939F93EF93FF93E0916502F09166028081E0916B02F0916C0282FD1BC031
:201CA000908180916E028F5F8F7320916F02821741F0E0916E02F0E0EB5AFD4F958F80933D
:201CC0006E02FF91EF919F918F912F910F900FBE0F901F9018958081F4CF1F920F920FB632
:201CE0000F9211242F933F938F939F93AF93BF938091510290915202A0915302B09154029C
:201D00003091780123E0230F2D3758F50196A11DB11D209378018093510290935202A09344
:201D20005302B09354028091790190917A01A0917B01B0917C010196A11DB11D8093790173
:201D400090937A01A0937B01B0937C01BF91AF919F918F913F912F910F900FBE0F901F904C
:201D6000189526E8230F0296A11DB11DD2CF1F920F920FB60F9211242F933F934F935F935C
:201D80006F937F938F939F93AF93BF93CF93DF93EF93FF9380917601C0917701D0E087FFD8
:201DA00024C01092850010928400809176018F5F8093760180917601082E000C990B8C17E1
:201DC0009D0724F4809176018C30C4F18091840090918500049680349C4908F47AC0809199
:201DE000840090918500049676C080917601082E000C990B8C179D07C4F6E09176018E2FD5
:201E0000EE0F990BFC01EE0FFF1FE80FF91FED55FE4F808186FFC9CFE09176018E2FEE0FAB
:201E2000990BFC01EE0FFF1FE80FF91FED55FE4F808160E08F730E942A04B7CF209184007A
:201E400030918500E09176018E2FEE0F990BFC01EE0FFF1FE80FF91FED55FE4F818192812B
:201E6000820F931F9093890080938800E09176018E2FEE0F990BFC01EE0FFF1FE80FF91F6B
:201E8000ED55FE4F808186FF11C0E09176018E2FEE0F990BFC01EE0FFF1FE80FF91FED55AD
:201EA000FE4F808161E08F730E942A04FF91EF91DF91CF91BF91AF919F918F917F916F91F1
:201EC0005F914F913F912F910F900FBE0F901F90189580E49CE990938900809388008FEF8D
:201EE00080937601E3CFCF92DF92EF92FF920F931F93E82FF92F05C001501109210931099B
:201F000061F1908196239417B9F305C0015011092109310911F1908196239413F7CFC12C94
:201F2000D12CE12CF12C0AC08FEFC81AD80AE80AF80A0C151D052E053F0579F080818623AD
:201F4000841791F36C2D7D2D8E2D9F2D1F910F91FF90EF90DF90CF90089560E070E080E0DF
:201F600090E01F910F91FF90EF90DF90CF900895EF92FF920F931F93CF93DF93F82E192F80
:201F8000E62E042F81E0860F880F0E94570183E00E945701CF2DD12FEC0EFD2EF11CCE1505
:201FA000DF05B9F007FF13C0FE0184910E945701182F80E00E945701812321968111EFCF61
:201FC000DF91CF911F910F91FF90EF9008958881EDCF81E0F5CFFC01909177019C3098F45E
:201FE00081E0890F809377019083892F90E0FC01EE0FFF1FE80FF91FED55FE4F88EB9BE07E
:202000009283818308958FEF80830895109258021092570288EE93E0A0E0B0E0809359028E
:2020200090935A02A0935B02B0935C022EE131E030935602209355022DEC30E0309362025B
:20204000209361022CEC30E0309364022093630228EC30E0309366022093650229EC30E073
:2020600030936802209367022AEC30E030936A02209369022EEC30E030936C0220936B0229
:2020800010926E0210926F0210927002109271021092F5021092F4028093F6029093F7029A
:2020A000A093F802B093F90280E391E09093F3028093F2028FEF9FEF9093FF028093FE027F
:2020C000109252031092580310925A031092590310925F03109260031092610310926203F9
:2020E00081E080935E0380935B0310925C0392E090935D038093510363E070E081E593E0D1
:202100000E94B20A67E081E593E00E94BA068EE493E00E94EB0F8BE493E00E94EB0F88E474
:2021200093E00E94EB0F10924303109242031092450310924403109247031092460370E0C7
:2021400060E082E493E00E942F0A2091420330914303811113C02115310519F0C9010E9448
:202160008B1B109243031092420310924703109246031092450310924403089510924703B7
:20218000109246036CE471E0C9010C94EA1CCF93DF93CDB7DEB72C970FB6F894DEBF0FBED8
:2021A000CDBF789484B5826084BD84B5816084BD85B5826085BD85B5816085BD80916E0096
:2021C000816080936E0010928100809181008260809381008091810081608093810080915A
:2021E0008000816080938000809191008260809391008091910081608093910080919000FB
:202200008160809390008091C10084608093C1008091C10082608093C1008091C100816075
:202220008093C1008091C30081608093C3008091C00082608093C0008091C20081608093F2
:20224000C20080917A00846080937A0080917A00826080937A0080917A00816080937A00CD
:2022600080917A00806880937A001092500210928401109283018091D70081608093D7006A
:2022800080EA8093D80089B5806189BD89B5826089BD09B400FEFDCF61E070E080E090E036
:2022A0000E94DD048091D8008F7C80618093D8008091E000807F8093E0008091E1008E7EFA
:2022C0008093E1008DE08093E200559A209AE0916502F091660282E08083E0916102F09184
:2022E00062021082E0916302F09164028FEC808310926D02E0916902F0916A0286E080836A
:20230000E0916702F0916802808180618083E0916702F0916802808188608083E091670288
:20232000F0916802808180688083E0916702F091680280818F7D80838FEF9FEF9093FF02C1
:202340008093FE020E9436098091860181114CC0809185018F5F809385014BE050E06EE389
:2023600071E085E592E00E94E90164E670E080E090E00E94DD0485E592E00E948702892BFC
:2023800099F1CE0101960E94570ACE0101960E94C708CE0101960E94040940914603509163
:2023A0004703609142037091430382EF92E00E94100542E050E06AE471E082EF92E00E9446
:2023C00010058091460390914703892B69F06DE471E080914203909143030E94E11C892B64
:2023E00019F481E08093860180918601813099F548E050E069E571E085E592E00E94E9019F
:2024000064E670E080E090E00E94DD0485E592E00E948702892BF9F0CE0101960E94570AC2
:20242000CE0101960E94C708CE0101960E9404098091460390914703892B69F062E671E045
:2024400080914203909143030E94E11C892B19F482E08093860185E592E00E94870218162E
:2024600019060CF04DC08091CC01811149C081E08093E10185E592E00E9425020E94C50752
:2024800082EF92E00E949B03181619060CF03BC08091E101811137C081E08093CC0182EFA7
:2024A00092E00E9459030E94C5078091CB01882309F464C01092CB01E091E30110924B02E3
:2024C000E150E73108F05AC0F0E0E759FD4E0C94C31A86129D12F812A313C413BE12BE124B
:2024E000BE12BE12BE1229148814E5141F15BE12BE12BE12BE12BE1222152E1598171E18F7
:202500001092E101BDCF1092CC01CFCF1091E40161E0812F0E94580461E08091E50181115F
:2025200001C060E0812F0E942A0481E080934102809342028093CD0124C11091E40160E080
:20254000812F0E945804812F0E940104AC01990F660B770B4093C7015093C8016093C9012A
:202560007093CA0191E09093410292E0909342021093CD018093CE019093F801809141021A
:20258000813009F083C5109142021093F9018091E101882309F487C56AEA85E592E00E940E
:2025A000C80264E485E592E00E94C8026CE185E592E00E94C802612F85E592E00E94C80254
:2025C0000091F801602F85E592E00E94C8022DECE22E21E0F22E10E0011709F453C5D7015B
:2025E0006D917D0185E592E00E94C8021F5FF4CFF090E40161E08F2D0E945804E090E50120
:202600000E2D10E061E08F2D0E9458040115110529F460E08F2D0E942A0426C00F3F110535
:2026200011F461E0F7CFEF2DF0E0E65BFE4FE491E150EF3008F082C0F0E0EF5DFC4E0C940F
:20264000C31A30133B1340134A1354139E139E139E135E13681372137C1389139E139113F1
:2026600084B5806884BDE7BC81E08093410293E0909342025FCF84B5806284BDE8BCF4CFD3
:20268000809180008068809380001093890000938800EACF80918000806280938000109385
:2026A0008B0000938A00E0CF8091800088608093800010938D0000938C00D6CF8091900022
:2026C0008068809390001093990000939800CCCF8091900080628093900010939B00009376
:2026E0009A00C2CF8091900088608093900010939D0000939C00B8CF8091C00080688093C1
:20270000C0008091C0008F7B8093C000E092CF00ABCF8091C00080628093C000E092D000C8
:20272000A3CF8091C20088608093C2008091C2008B7F8093C200E092D20096CF00381105EE
:202740000CF06FCF66CF1091E401812F0E949404AC01990F660B770B4093C7015093C8010B
:202760006093C9017093CA0191E09093410294E0909342021093CD018093CE015093CF0116
:2027800083E08093F801FACE1091E40162E0812F0E945804812F0E940104892B21F461E02B
:2027A000812F0E942A0465E070E080E090E00E94DD0486E0143079F087E0163061F088E038
:2027C000183049F089E0193031F08AE01A3019F01C3079F48BE00E949404092E000CAA0B92
:2027E000BB0B8093C7019093C801A093C901B093CA018091C7019091C801A091C901B09142
:20280000CA01893D9340A105B105D4F481E090E0A0E0B0E08093C7019093C801A093C9018B
:20282000B093CA0181E08093410285E0809342021093CD018091C7018093CE0182E0A1CF19
:202840001092C7011092C8011092C9011092CA01E9CF0091E60110E0102F00278091E5014D
:20286000080F111D8091E4018630F1F4E0914E038E2F90E0FC01EE0FFF1FE80FF91FED552A
:20288000FE4F808186FD06C066E070E08EE493E00E94CC05B8018EE493E00E94950581E078
:2028A000809341029BE0E4CE8930C1F4E0914B038E2F90E0FC01EE0FFF1FE80FF91FED55D2
:2028C000FE4F808186FD06C069E070E08BE493E00E94CC05B8018BE493E0DFCF8A30F9F681
:2028E000E09148038E2F90E0FC01EE0FFF1FE80FF91FED55FE4F808186FD06C06AE070E055
:2029000088E493E00E94CC05B80188E493E0C5CF61E08BE00E94580460E085E00E945804EC
:2029200060E08BE00E942A0403E0E02EF12CC7010197F1F761E08BE00E942A0403E210E075
:20294000C8010197F1F760E08BE00E942A040E940C0A1B012C0160E08BE00E942A04C7016F
:202960000197F1F761E08BE00E942A04C8010197F1F760E08BE00E942A040E940C0A9B0143
:20298000AC0160E070E080E090E051016201E12CF12C00E010E00E94E61A02E00E94CB1A70
:2029A0000E94651A2DEC3CEC48EE51E40E94BD190E942F1A81E0809341028CE0809342026D
:2029C0006093CD017093CE0139CF81E593E00E94B30762E381E593E00E94280681E593E060
:2029E0000E94EC060091E6012091E5014091E40170E060E081E593E00E946A060091E90188
:202A00002091E8014091E70161E070E081E593E00E946A060091EC012091EB014091EA0110
:202A200062E070E081E593E00E946A0681E593E00E94EC0681E0809341029DE019CE0E94EF
:202A400036099CCD81E08093410294E1909342028093CD0182E08093CE0193CE0091E4013F
:202A600061E0802F0E9458042091E60130E0322F22278091E501D901A80FB11DB887AF834F
:202A80002090E801312C322C22248091E701280E311CC101B0E0A0E089879A87AB87BC87A8
:202AA00080910C01801390C0E9E4F1E0149117FD66C061E0802F0E945804112319F012302B
:202AC00009F074C14F8158856A01F12CE12C60E072E18AE790E0A70196010E943619490198
:202AE0005A0129013A0151E0451A5108610871088FEF481651046104710409F00CF44CC13A
:202B000060E472E48FE090E0A70196010E94361929013A0191E0491A510861087108123056
:202B200009F0F2C0AFEF4A16510461047104C1F0BCF060E970ED83E090E0A70196010E9406
:202B4000361929013A01B1E04B1A510861087108EFEF4E1651046104710411F00CF0D5C28B
:202B60002FEF3FEFA9012114310409F059C1113009F4B7C10CF0A1C1112309F4A3C169854B
:202B80007A858B859C850E94DD048091E40190910C01981311C0E9E4F1E094912FEF20934E
:202BA0000C01913009F4B2C108F4ADC1933009F4B3C1943009F4B6C160E00E942A0481E090
:202BC0008093410295E154CD8F3FC9F600930C01E9E4F1E014911F3F91F2113059F168F0D4
:202BE000133009F449C0143009F46CC017FDC7CF61E0802F0E94580462CF14BC15BC84B57C
:202C0000826084BD85B5816085BD802F90E0FC01E958FE4FE491F0E0EE0FFF1FE55CFE4F9C
:202C200025913491FC01EA56FE4FE491E093920110E03FCF1092800010928100809181003F
:202C400088608093810080918100816080938100802F90E0FC01E958FE4FE491F0E0EE0F05
:202C6000FF1FE55CFE4F25913491FC01EA56FE4FE491E09391011DCF1092900010929100D8
:202C80008091910088608093910080919100816080939100802F90E0FC01E958FE4FE491C0
:202CA000F0E0EE0FFF1FE55CFE4F259134913093900120938F01FC01EA56FE4FE491E09317
:202CC0008E01F7CE1092C0001092C1008091C10088608093C1008091C10081608093C100C6
:202CE000802F90E0FC01E958FE4FE491F0E0EE0FFF1FE55CFE4F25913491FC01EA56FE4F37
:202D0000E491E0938D01D5CEFFEF4F1651046104710409F00CF448C068E478EE81E090E094
:202D2000A70196010E94361929013A0181E0481A510861087108112309F40EC2FFEF4F16AC
:202D400051046104710409F008F40ACF62E17AE780E090E0A70196010E94361929013A016D
:202D6000B1E04B1A510861087108EFEF4E1651046104710409F008F4F3CE8AE0B594A7940D
:202D8000979487948A95D1F724013501E1E04E1A510861087108E4CE81E01111E1CE95B519
:202DA000987F892B85BDDCCE82E0F7CFAF81B8856D01F12CE12C60E072E18AE790E0A70113
:202DC0009D010E94361929013A01B1E04B1A51086108710891E041145104E1E06E06710409
:202DE00084F068E478EE81E090E0A70196010E94361929013A01F1E04F1A510861087108D2
:202E000093E01130D9F480918100887F892B809381002FEF3FEFA9012114310409F461C0D2
:202E20002F813885220F331FD1010E94AE1928EE33E040E050E00E948C1999CE1330F1F418
:202E400080919100887F892B809391002FEF3FEFA9012114310421F7509299004092980014
:202E600020939701309398014093990150939A018091710082608093710081CE143009F04C
:202E80006FCE8091C100887F892B8093C1002FEF3FEFA9012114310419F64092CF002093D1
:202EA00093013093940140939501509396018091720080648093720062CE133069F2143045
:202EC00061F35DCE47BC20939F013093A0014093A1015093A20180916E00826080936E00DC
:202EE0004ECE509289004092880020939B0130939C0140939D0150939E0180916F008260ED
:202F000080936F003CCE10926E0056CE90916F009D7F90936F0050CE909171009D7F9093C4
:202F200071004ACE909172009F7B9093720044CEF12CE090E401FE1408F07BC0EF2DF0E011
:202F4000EE51FE4F1481012F001F0027001F1F778091E501863029F580918B0190918C010F
:202F6000892B71F486E190E00E94EF1A6C0146E050E06E2D0E94EC0AD0928C01C0928B01F3
:202F8000412F153608F044E6079500270795402B6F2D80918B0190918C010E94A408F394CE
:202FA000C8CF893011F58091890190918A01892B71F486E190E00E94EF1A6C0149E050E013
:202FC0006E2D0E94EC0AD0928A01C0928901412F153608F044E6079500270795402B6F2DB2
:202FE0008091890190918A01D8CF8A30C1F68091870190918801892B71F486E190E00E949D
:20300000EF1A6C014AE050E06E2D0E94EC0AD0928801C0928701412F153608F044E607956F
:2030200000270795402B6F2D8091870190918801B4CF81E08093410296E11ACB8091E401F7
:203040008130D1F41092E1018093CC0181E08093410287E1809342029091E2019093F80100
:20306000A4EEB1E0EDECF1E080E0981709F48BCA2D9121938F5FF9CF1092CC0181E0809317
:20308000E101E4CF1092E1011092410280E090E0892B09F459C90E949302882309F454C993
:2030A0000E94000051C98091CC01882369F36AEA82EF92E00E94340364E482EF92E00E9492
:2030C00034036CE182EF92E00E9434036091F90182EF92E00E9434036091F80182EF92E03C
:2030E0000E94340310E08091F801181758F4E12FF0E0E353FE4F608182EF92E00E94340382
:203100001F5FF1CF1092CC01BFCF68E478EE81E090E0A70196010E94361929013A01F1E08B
:203120004F1A5108610871082FEF421651046104710409F00CF414CD64E274EF80E090E0F3
:20314000A70196010E94361929013A0191E0491A510861087108F2CD83E0AFEF4A16510456
:203160006104710409F00CF41ACE62E17AE780E090E0A70196010E94361929013A0181E02A
:20318000481A51086108710884E09FEF491651046104710409F008F402CE9AE0B594A7944F
:2031A000979487949A95D1F724013501B1E04B1A51086108710885E0F2CD82E493E00E94A7
:2031C000040981E593E00C940C0997F99F6780E870E060E008959FEF80EC089500240A94D0
:2031E0001616170618060906089500240A9412161306140605060895092E0394000C11F418
:20320000882352F0BB0F40F4BF2B11F460FF04C06F5F7F4F8F4F9F4F089557FD9058440F1D
:20322000551F59F05F3F71F04795880F97FB991F61F09F3F79F08795089512161306140669
:20324000551FF2CF4695F1DF08C0161617061806991FF1CF86957105610508940895E8943B
:20326000BB2766277727CB0197F90895052E97FB1EF400940E944D1957FD07D00E948C1963
:2032800007FC03D04EF40C944D1950954095309521953F4F4F4F5F4F089590958095709525
:2032A00061957F4F8F4F9F4F08952F923F924F925F926F927F928F929F92AF92BF92CF9226
:2032C000DF92EF92FF920F931F93CF93DF93CDB7DEB7CA1BDB0B0FB6F894DEBF0FBECDBF18
:2032E00009942A88398848885F846E847D848C849B84AA84B984C884DF80EE80FD800C815B
:203300001B81AA81B981CE0FD11D0FB6F894DEBF0FBECDBFED010895A1E21A2EAA1BBB1BA9
:20332000FD010DC0AA1FBB1FEE1FFF1FA217B307E407F50720F0A21BB30BE40BF50B661F9B
:20334000771F881F991F1A9469F760957095809590959B01AC01BD01CF010895A29FB001D0
:20336000B39FC001A39F700D811D1124911DB29F700D811D1124911D08950E94D1190C94E2
:20338000FC180E94F51858F00E94EE1840F029F45F3F29F00C94E51851110C9430190C94EE
:2033A000EB180E940D1968F39923B1F3552391F3951B550BBB27AA2762177307840738F022
:2033C0009F5F5F4F220F331F441FAA1FA9F335D00E2E3AF0E0E832D091505040E695001CB9
:2033E000CAF72BD0FE2F29D0660F771F881FBB1F261737074807AB07B0E809F0BB0B802DDF
:20340000BF01FF2793585F4F3AF09E3F510578F00C94E5180C9430195F3FE4F3983ED4F3D0
:20342000869577956795B795F7959F5FC9F7880F911D9695879597F90895E1E0660F771F4E
:20344000881FBB1F621773078407BA0720F0621B730B840BBA0BEE1F88F7E09508950E940D
:20346000361A6894B1110C94301908950E94151988F09F5798F0B92F9927B751B0F0E1F0D1
:20348000660F771F881F991F1AF0BA95C9F714C0B13091F00E942F19B1E008950C942F1973
:2034A000672F782F8827B85F39F0B93FCCF3869577956795B395D9F73EF49095809570957D
:2034C00061957F4F8F4F9F4F0895E894F92F96EBFF2381F0121613061406440B9395F695AA
:2034E00087957795679557954040FF23B9F71BC099270895882351F49850D2F7872B762F3A
:20350000652F542F432F322F20E0B1F3121613061406440B88233AF09A95440F551F661F23
:20352000771F881FCAF755234AF4440F551F11F460FF04C06F5F7F4F8F4F9F4F880F9695BE
:20354000879597F90895991B79E004C0991F961708F0961B881F7A95C9F780950895AA1B56
:20356000BB1B51E107C0AA1FBB1FA617B70710F0A61BB70B881F991F5A95A9F780959095B3
:20358000BC01CD010895EE0FFF1F0590F491E02D099497FD1094002E083098F00850232F54
:2035A000342F452F562F672F782F892F912DF4CF15949795879577956795579547953795AC
:2035C00027950A95AAF71124002D08952A0D3B1D4C1D5D1D6E1D7F1D801F911F08950F93C9
:2035E0001F93CF93DF938230910510F482E090E0E0916803F091690330E020E0B0E0A0E03E
:20360000309799F42115310509F44AC0281B390B24303105D8F58A819B816115710589F178
:20362000FB0193838283FE0111C0408151810281138148175907E0F04817590799F4109777
:2036400061F012960C93129713961C933296CF01DF91CF911F910F910895009368031093DB
:203660006903F4CF2115310551F04217530738F0A901DB019A01BD01DF01F801C1CFEF015B
:20368000F9CF9093690380936803CDCFFE01E20FF31F819391932250310939832883D7CFC6
:2036A0002091660330916703232B41F420910F0130911001309367032093660320910D01A7
:2036C00030910E012115310541F42DB73EB74091110150911201241B350BE0916603F091EF
:2036E0006703E217F307A0F42E1B3F0B2817390778F0AC014E5F5F4F2417350748F04E0F4B
:203700005F1F5093670340936603819391939FCFF0E0E0E09CCFCF93DF930097E9F0FC01C0
:20372000329713821282A0916803B0916903ED0130E020E01097A1F420813181820F931F7E
:2037400020916603309167032817390709F061C0F0936703E0936603DF91CF910895EA016A
:20376000CE17DF07E8F54A815B819E0141155105B1F7E901FB83EA8349915991C40FD51FA7
:20378000EC17FD0761F4808191810296840F951FE90199838883828193819B838A83F0E0B8
:2037A000E0E012968D919C9113970097B9F52D913C911197CD010296820F931F2091660371
:2037C000309167032817390739F6309751F51092690310926803B0936703A0936603BCCF14
:2037E000D383C28340815181840F951FC817D90761F44E5F5F4F88819981480F591F51831F
:2038000040838A819B81938382832115310509F0B0CFF0936903E09368039ECFFD01DC01AA
:20382000C0CF13821282D7CFB0E0A0E0EAE1FCE10C9457198C01009751F4CB010E94EF1A82
:203840008C01C801CDB7DEB7E0E10C947319FC01E60FF71F9C0122503109E217F30708F4CC
:203860009DC0D901CD91DC911197C617D70798F0C530D10530F3CE0104978617970708F3CD
:20388000C61BD70B2297C193D1936D937C93CF010E948B1BD6CF5B01AC1ABD0A4C018C0E58
:2038A0009D1EA0916803B0916903512C412CF12CE12C109731F58091660390916703881581
:2038C000990509F05CC04616570608F058C080910D0190910E01009741F48DB79EB74091E7
:2038E000110150911201841B950BE817F90708F055C0F0936703E0936603F90171836083DD
:20390000A0CF8D919C91119712966C90129713967C901397A815B90559F56C0142E0C40E6F
:20392000D11CCA14DB0420F1AC014A195B09DA011296159780F06282738251834083D9016F
:203940006D937C93E114F10471F0D7011396FC93EE93129776CF22968C0F9D1FF901918371
:203960008083F301EFCFF0936903E093680369CF4816590608F42C017D01D3019ACFCB0120
:203980000E94EF1A7C01009749F0AE01B8010E94D11CC8010E948B1B870153CF10E000E0AD
:2039A00050CFFB01DC0102C001900D9241505040D8F70895DC0101C06D9341505040E0F7FA
:2039C0000895FB01DC018D91019080190110D9F3990B0895FB01DC0101900D920020E1F70A
:2039E000089510E0CCEDD0E004C0FE010E94C31A2196CD3DD107C9F7F894FFCFFFFFFFFFE0
:203A000000E1000000000000FF00006A03800000C1808100000000000000C802E90116024B
:203A20001403870225027902000000003403100555034A039B035903770341542B4E414D43
:203A4000455477696E000D0A004F4B2B5365743A5477696E0041542B4E414D453F004F4BE1
:203A60002B4E414D453A5477696E0000FFFFFFFFFFFFFFFFFFFFFFFFFFFFFFFFFFFFFFFF32
:203A800077696E0041542B4E414D453F004F4B2B4E414D453A5477696E00FFFFFFFFFFFFFC
:203AA000FFFFFFFFFFFFFFFFFFFFFFFFFFFFFFFFFFFFFFFFFFFFFFFFFFFFFFFFFFFFFFFF26
:203AC000FFFFFFFFFFFFFFFFFFFFFFFFFFFFFFFFFFFFFFFFFFFFFFFFFFFFFFFFFFFFFFFF06
:203AE000FFFFFFFFFFFFFFFFFFFFFFFFFFFFFFFFFFFFFFFFFFFFFFFFFFFFFFFFFFFFFFFFE6
:203B0000FFFFFFFFFFFFFFFFFFFFFFFFFFFFFFFFFFFFFFFFFFFFFFFFFFFFFFFFFFFFFFFFC5
:2070000055C000006EC000006CC000006AC0000068C0000066C0000064C0000062C0000043
:2070200060C000005EC00000F2C400005AC0000058C0000056C0000054C0000052C00000EE
:2070400050C0000078C000004CC000004AC0000048C0000046C0000044C0000042C00000BE
:2070600040C000003EC000003CC000003AC0000038C0000036C0000034C0000032C0000048
:2070800030C000002EC000002CC000002AC0000028C0000026C0000024C0000022C00000A8
:2070A00020C000001EC000001CC0000011241FBECFEFDAE0DEBFCDBF11E0A0E0B1E0E2E3BC
:2070C000FFE702C005900D92A83AB107D9F711E0A8EAB1E001C01D92AE3BB107E1F78FD30B
:2070E00026C78ECFF89410926F0010928100109285001092840081E085BF15BE47985D9AEB
:20710000289A0C94000008952091B2013091B3012F5F3F4F3093B3012093B201932F37FFA6
:2071200003C08EEF831B982F990F921710F447980895479A08951F920F920FB60F9211246E
:207140002F938F939F93EF93FF9310928500109284008091A8019091A901009741F00197D3
:207160009093A9018093A801892B09F45D9A8091AA019091AB01009741F001979093AB0126
:207180008093AA01892B09F4289AE0E0F0E0859194918F5F9F4F49F08091AC019091AD0151
:2071A00001969093AD018093AC01FF91EF919F918F912F910F900FBE0F901F90189584E0BC
:2071C0008093E9000DC08091E8008B778093E80003C08EB3882351F08091E80082FFF9CFBE
:2071E0008091E80085FFEFCF8091F1000895982F83E08093E9008091E80085FD0DC0809136
:20720000E8008E778093E80003C08EB3882369F08091E80080FFF9CF9093F1005D9884E6CB
:2072200090E09093A9018093A80108954F925F926F927F928F929F92AF92BF92CF92DF921E
:20724000EF92FF920F931F93CF93DF9384E08093E9008091E80082FF57C2289884E690E067
:207260009093AB018093AA01AADF182F853481F48CE49DE19093AD018093AC0107B600FC4B
:20728000FDCFF999FECF81E180935700E89503C0843519F494DF8DE00DC28C34E1F38035F9
:2072A000D1F3843721F484E4A2DF80E003C2813611F489E5FFC18134B1F481DF182F7FDFE3
:2072C00090E0880F991FAA2797FDA095BA2F312F330F20E0442737FD4095542F822B932B68
:2072E000A42BB52BB8C1803711F483E5E3C1833549F4C0E0D1E089917ADF21E0C730D20714
:20730000D1F7D9C1863521F481E371DF80E3D2C1833731F487E86BDF85E969DF8EE1CAC149
:207320008536B9F4E0E0F0E093E085E090935700E89507B600FCFDCF80935700E89507B65D
:2073400000FCFDCFE058FF4FA0E7E030FA0771F7A2CF823739F4E1E0F0E089E08093570024
:207360008491A8C1863439F4E0E0F0E089E08093570084919FC18E3439F4E3E0F0E089E0E5
:2073800080935700849196C1813539F4E2E0F0E089E08093570084918DC1823631F489E521
:2073A00026DF80E024DF80E885C1823419F0873609F0E5C01092AD011092AC0100DF082FE8
:2073C000FEDEF82EFCDE682E8554823008F071C1902F80E0CF2DD0E0C82BD92B10926F00B3
:2073E000173609F04BC081E180935700E895DD24CC24C3943FC0E090AE01F090AF010091CC
:20740000B0011091B101B6E46B16D9F4ED2DF0E0EE29FF29E4918E2FEADEDD2081F082E08D
:2074200090E0A0E0B0E0E80EF91E0A1F1B1FE092AE01F092AF010093B0011093B101DC2470
:2074400018C0D801C701B695A7959795879559D5CEDE82E090E0A0E0B0E0E80EF91E0A1FF2
:207460001B1FE092AE01F092AF010093B0011093B1012197209709F0BECF7DC08090AE01F5
:207480009090AF01A090B001B090B10196E4691609F05DC083E0F40180935700E89507B63E
:2074A00000FCFDCF54C0F6E46F1661F5772031F1E090AE01F090AF010091B0011091B1019E
:2074C0007EDED82ECC24852D90E08C299D29F7010C0140925700E895112482E090E0A0E08B
:2074E000B0E0E80EF91E0A1F1B1FE092AE01F092AF010093B0011093B10102C060DE582E1A
:20750000742423C0E090AE01F090AF010091B0011091B10116950795F794E79450DE682FFA
:20752000C701F7D48091AE019091AF01A091B001B091B1010296A11DB11D8093AE01909349
:20754000AF01A093B001B093B101219704C05524772444244394209709F0A5CF96E46916B6
:2075600041F485E0F40180935700E89507B600FCFDCF8DE03CDE82E080936F009CC0833492
:2075800071F40091AE011091AF0119DE90E021E0F8010C0120935700E89511247CCE8336C8
:2075A00019F5E090AE01F090AF010091B0011091B10105DEF701E16090E021E00C0120938C
:2075C0005700E895112482E090E0A0E0B0E0E80EF91E0A1F1B1FE092AE01F092AF0100936A
:2075E000B0011093B10157CE8D3661F4E091AE01F091AF0185E080935700E89507B600FCF2
:20760000FDCF49CE823551F4E091AE01F091AF0105911491812FEBDD802F4CC0843421F5FE
:20762000E090AE01F090AF010091B0011091B10116950795F794E794C2DD682FC70169D4DE
:207640008091AE019091AF01A091B001B091B1010296A11DB11D8093AE019093AF01A093D8
:20766000B001B093B10117CE843609F5E090AE01F090AF010091B0011091B101D801C70142
:20768000B695A795979587953CD4B1DD82E090E0A0E0B0E0E80EF91E0A1F1B1FE092AE010A
:2076A000F092AF010093B0011093B10104C08B3111F08FE39CDD83E08093E9009091E8002B
:2076C0008091E8008E778093E80095FF04C010C08EB38823C9F08091E80080FFF9CF809193
:2076E000E8008E778093E80003C08EB3882361F08091E80080FFF9CF84E08093E9008091F1
:20770000E8008B778093E800DF91CF911F910F91FF90EF90DF90CF90BF90AF909F908F90AC
:207720007F906F905F904F9008959091B601892F8F77813249F58091B7018032A1F081328A
:2077400019F5913A09F58091E800877F8093E8008DE091E067E070E00BD28091E8008B770B
:207760008093E8000895913279F48091E800877F8093E8008DE091E067E070E05DD2809192
:20778000E8008E778093E800089582E061EC42E0B5D083E061E842E1B1D084E060E842E1EF
:2077A000ADC084B7877F84BF88E10FB6F89480936000109260000FBE20E880E090E00FB63F
:2077C000F89420936100809361000FBE81E085BF92E095BF3F9A209A559AE1E6F0E02083A1
:2077E000108247985D9A289A109289008AEF8093880090936F0083E080938100F0C0409116
:20780000000850910108109201081092000894B714BE88E10FB6F8948093600010926000D5
:207820000FBE292F30E0F901E270F07091FD18C090FF05C0859194918F5F9F4F81F423FFFF
:207840000FC08091090190910A014817590741F0E0E0F0E0859194918F5F9F4F09F042DC64
:20786000A0DF78941092AD011092AC010CC0DEDC36D38091AC019091AD0181549F4110F00D
:207880001092140141DC80911401882381F78091E00081608093E00025DC80E090E0089598
:2078A000FA01923049F0933061F09130F9F485E191E022E130E01EC087E291E02EE330E04D
:2078C00019C0882329F485E691E024E030E012C0813029F489E691E022E230E00BC0823006
:2078E00029F48DE891E028E130E004C080E090E020E030E091838083C90108958093E9004E
:207900008091EB0081608093EB001092ED006093EC004093ED008091EE00881F8827881F62
:2079200008958091B60188238CF403C08EB38823B1F08091E80082FFF9CF8091E8008B772A
:207940008093E80008958EB3882349F08091E80080FFF9CF8091E8008E778093E800089594
:20796000EF92FF920F931F9345D04CD008ED10E0F80180818F77808380818068808380819B
:207980008F7D808319BC1EBA1092B40180EEE82EF12CF70180818B7F8083F8018081816052
:2079A000808380E060E042E0A9DFE1EEF0E080818E7F8083E2EEF0E0808181608083808144
:2079C00088608083F70180818E7F8083F8018081806180831F910F91FF90EF900895E7ED06
:2079E000F0E08081816080838AE482BF81E08093B501B6CFE8EDF0E080818E7F808310921C
:207A0000E20008951092DA001092E10008951F920F920FB60F9211242F933F934F935F93F6
:207A20006F937F938F939F93AF93BF93EF93FF938091DA0080FF1BC08091D80080FF17C0B2
:207A40008091DA008E7F8093DA008091D90080FF0BC080E189BD82E189BD09B400FEFDCF36
:207A600081E08EBB3BD203C019BC1EBA37D28091E10080FF17C08091E20080FF13C0809138
:207A8000E2008E7F8093E2008091E20080618093E2008091D80080628093D80019BC85E049
:207AA0008EBB1CD28091E10084FF2CC08091E20084FF28C080E189BD82E189BD09B400FEC5
:207AC000FDCF8091D8008F7D8093D8008091E1008F7E8093E1008091E2008F7E8093E20012
:207AE0008091E20081608093E2008091B401882331F48091E30087FD02C081E001C084E067
:207B00008EBBECD18091E10083FF21C08091E20083FF1DC08091E100877F8093E10082E06A
:207B20008EBB1092B4018091E1008E7F8093E1008091E2008E7F8093E2008091E2008061E9
:207B40008093E20080E060E042E0D8DEC7D1FF91EF91BF91AF919F918F917F916F915F9130
:207B60004F913F912F910F900FBE0F901F9018959C014091BC015091BD014617570718F49D
:207B8000F90190E044C06115710511F0AB01F8CF8091E8008E778093E80040E050E0F0CF0F
:207BA0008EB3882309F444C0853009F443C08091E80083FF02C081E008958091E80082FD70
:207BC00031C08091E80080FF22C08091F3009091F200782F60E0292F30E0262B372B07C07A
:207BE00081918093F100415050402F5F3F4F4115510519F02830310598F390E02830310566
:207C000009F491E08091E8008E778093E8004115510531F6992321F605C08EB3882341F075
:207C2000853041F08091E80082FFF7CF80E0089582E0089583E008959C016115710529F47C
:207C40008091E8008B778093E800F90126C08EB3882391F1853091F18091E80083FF02C06C
:207C600081E008958091E80082FFF1CF06C08091F10081936150704059F02091F300809191
:207C8000F200322F20E090E0822B932B892B79F78091E8008B778093E80061157105B9F601
:207CA00005C08EB3882341F0853041F08091E80080FFF7CF80E0089582E0089583E00895C2
:207CC0000F931F93DF93CF9300D0CDB7DEB7E6EBF1E08091F100819381E0EE3BF807C9F792
:207CE00024DD8091E80083FFE4C08091B6019091B701953009F46DC0963040F4913081F1A7
:207D0000913070F0933009F0D4C02AC0983009F4A3C0993009F4B2C0963009F0CAC07CC023
:207D2000803809F4C6C0823809F0C3C08091BA0187708093E9008091EB001092E9002091DB
:207D4000E800277F2093E80090E025E0969587952A95E1F781708093F1001092F10087C0D8
:207D6000882319F0823009F0A4C08F71823009F0A0C08091B801882331F52091BA01277097
:207D800009F497C02093E9008091EB0080FF1BC0933021F48091EB00806213C08091EB0018
:207DA00080618093EB0081E090E002C0880F991F2A95E2F78093EA001092EA008091EB00E5
:207DC00088608093EB001092E9008091E800877F51C0882309F06DC01091B8011F770FB79B
:207DE000F8948091E800877F8093E8009ADD8091E80080FFFCCF8091E3008078812B809398
:207E0000E30080688093E300112311F482E001C083E08EBB0FBF4DC08058823008F049C033
:207E20008091B8019091B9016091BA01AE014F5F5F4F36DDBC01009709F43BC08091E8008E
:207E4000877F8093E80089819A8192DE8091E8008B778093E8002DC0803859F58091E800AA
:207E6000877F8093E8008091B4018093F1008091E8008E778093E80054DD1BC08823C9F4CA
:207E80009091B8019230A8F48091E800877F8093E8009093B40145DD8091B401882331F420
:207EA0008091E30087FD02C081E001C084E08EBB6CDC8091E80083FF0AC08091EB0080624E
:207EC0008093EB008091E800877F8093E8000F900F90CF91DF911F910F91089508951F9360
:207EE0008EB3882361F01091E9001092E9008091E80083FF01C0E4DE17701093E9001F916F
:207F00000895F999FECF92BD81BDF89A992780B50895262FF999FECF1FBA92BD81BD20BDBD
:207F20000FB6F894FA9AF99A0FBE01960895F894FFCF4341544552494E4100777700080031
:207F40000000000000080112011001020000084123360001000201000109023E00020100FF
:207F600080320904000001020201000524001001042402040524060001070582030800FF0C
:207F800009040100020A000000070504021000010705830210000104030904220341007216
:207FA000006400750069006E006F0020004C0065006F006E006100720064006F0000001836
:1A7FC00003410072006400750069006E006F0020004C004C004300000000D7
:00000001FF
